{
  "_format": "hh-sol-artifact-1",
  "contractName": "Hash",
  "sourceName": "contracts/Hash.sol",
  "abi": [
    {
      "inputs": [
        {
          "internalType": "string",
          "name": "key",
          "type": "string"
        }
      ],
      "name": "getInteger",
      "outputs": [
        {
          "internalType": "uint256",
          "name": "",
          "type": "uint256"
        }
      ],
      "stateMutability": "view",
      "type": "function"
    },
    {
      "inputs": [
        {
          "internalType": "string",
          "name": "key",
          "type": "string"
        },
        {
          "internalType": "uint256",
          "name": "value",
          "type": "uint256"
        }
      ],
      "name": "setInteger",
      "outputs": [],
      "stateMutability": "nonpayable",
      "type": "function"
    },
    {
      "inputs": [
        {
          "internalType": "string",
          "name": "",
          "type": "string"
        }
      ],
      "name": "stringToIntegerMapping",
      "outputs": [
        {
          "internalType": "uint256",
          "name": "",
          "type": "uint256"
        }
      ],
      "stateMutability": "view",
      "type": "function"
    }
  ],
  "bytecode": "0x608060405234801561001057600080fd5b5061045b806100206000396000f3fe608060405234801561001057600080fd5b50600436106100415760003560e01c806344f8d4ae14610046578063a75300c214610062578063f4eac57c14610092575b600080fd5b610060600480360381019061005b91906102ce565b6100c2565b005b61007c6004803603810190610077919061032a565b6100e9565b6040516100899190610382565b60405180910390f35b6100ac60048036038101906100a7919061032a565b610110565b6040516100b99190610382565b60405180910390f35b806000836040516100d3919061040e565b9081526020016040518091039020819055505050565b600080826040516100fa919061040e565b9081526020016040518091039020549050919050565b6000818051602081018201805184825260208301602085012081835280955050505050506000915090505481565b6000604051905090565b600080fd5b600080fd5b600080fd5b600080fd5b6000601f19601f8301169050919050565b7f4e487b7100000000000000000000000000000000000000000000000000000000600052604160045260246000fd5b6101a58261015c565b810181811067ffffffffffffffff821117156101c4576101c361016d565b5b80604052505050565b60006101d761013e565b90506101e3828261019c565b919050565b600067ffffffffffffffff8211156102035761020261016d565b5b61020c8261015c565b9050602081019050919050565b82818337600083830152505050565b600061023b610236846101e8565b6101cd565b90508281526020810184848401111561025757610256610157565b5b610262848285610219565b509392505050565b600082601f83011261027f5761027e610152565b5b813561028f848260208601610228565b91505092915050565b6000819050919050565b6102ab81610298565b81146102b657600080fd5b50565b6000813590506102c8816102a2565b92915050565b600080604083850312156102e5576102e4610148565b5b600083013567ffffffffffffffff8111156103035761030261014d565b5b61030f8582860161026a565b9250506020610320858286016102b9565b9150509250929050565b6000602082840312156103405761033f610148565b5b600082013567ffffffffffffffff81111561035e5761035d61014d565b5b61036a8482850161026a565b91505092915050565b61037c81610298565b82525050565b60006020820190506103976000830184610373565b92915050565b600081519050919050565b600081905092915050565b60005b838110156103d15780820151818401526020810190506103b6565b60008484015250505050565b60006103e88261039d565b6103f281856103a8565b93506104028185602086016103b3565b80840191505092915050565b600061041a82846103dd565b91508190509291505056fea2646970667358221220f82efd2a7948feb4d2a8ae33f484281cb5629a4bbf2f2fc4bb00e61fad48fe2b64736f6c63430008120033",
  "linkReferences": {},
  "deployedLinkReferences": {}
}