{
  "_format": "hh-sol-artifact-1",
  "contractName": "Voting",
  "sourceName": "contracts/Voting.sol",
  "abi": [
    {
      "inputs": [],
      "stateMutability": "nonpayable",
      "type": "constructor"
    },
    {
      "inputs": [
        {
          "internalType": "uint256",
          "name": "",
          "type": "uint256"
        }
      ],
      "name": "candidateList",
      "outputs": [
        {
          "internalType": "string",
          "name": "",
          "type": "string"
        }
      ],
      "stateMutability": "view",
      "type": "function"
    },
    {
      "inputs": [],
      "name": "getCandidateList",
      "outputs": [
        {
          "internalType": "string[]",
          "name": "",
          "type": "string[]"
        }
      ],
      "stateMutability": "view",
      "type": "function"
    },
    {
      "inputs": [
        {
          "internalType": "string",
          "name": "candidate",
          "type": "string"
        }
      ],
      "name": "totalVotesFor",
      "outputs": [
        {
          "internalType": "uint256",
          "name": "",
          "type": "uint256"
        }
      ],
      "stateMutability": "view",
      "type": "function"
    },
    {
      "inputs": [
        {
          "internalType": "string",
          "name": "candidate",
          "type": "string"
        }
      ],
      "name": "validCandidate",
      "outputs": [
        {
          "internalType": "bool",
          "name": "",
          "type": "bool"
        }
      ],
      "stateMutability": "view",
      "type": "function"
    },
    {
      "inputs": [
        {
          "internalType": "string",
          "name": "candidate",
          "type": "string"
        }
      ],
      "name": "voteForCandidate",
      "outputs": [],
      "stateMutability": "nonpayable",
      "type": "function"
    },
    {
      "inputs": [
        {
          "internalType": "string",
          "name": "",
          "type": "string"
        }
      ],
      "name": "votesReceived",
      "outputs": [
        {
          "internalType": "uint256",
          "name": "",
          "type": "uint256"
        }
      ],
      "stateMutability": "view",
      "type": "function"
    }
  ],
  "bytecode": "0x60806040523480156200001157600080fd5b5060405180604001604052806040518060400160405280600681526020017f4a6f686e6e79000000000000000000000000000000000000000000000000000081525081526020016040518060400160405280600581526020017f416d6265720000000000000000000000000000000000000000000000000000008152508152506001906002620000a3929190620000aa565b50620004f8565b828054828255906000526020600020908101928215620000f7579160200282015b82811115620000f6578251829081620000e5919062000411565b5091602001919060010190620000cb565b5b5090506200010691906200010a565b5090565b5b808211156200012e576000818162000124919062000132565b506001016200010b565b5090565b508054620001409062000200565b6000825580601f1062000154575062000175565b601f01602090049060005260206000209081019062000174919062000178565b5b50565b5b808211156200019357600081600090555060010162000179565b5090565b600081519050919050565b7f4e487b7100000000000000000000000000000000000000000000000000000000600052604160045260246000fd5b7f4e487b7100000000000000000000000000000000000000000000000000000000600052602260045260246000fd5b600060028204905060018216806200021957607f821691505b6020821081036200022f576200022e620001d1565b5b50919050565b60008190508160005260206000209050919050565b60006020601f8301049050919050565b600082821b905092915050565b600060088302620002997fffffffffffffffffffffffffffffffffffffffffffffffffffffffffffffffff826200025a565b620002a586836200025a565b95508019841693508086168417925050509392505050565b6000819050919050565b6000819050919050565b6000620002f2620002ec620002e684620002bd565b620002c7565b620002bd565b9050919050565b6000819050919050565b6200030e83620002d1565b620003266200031d82620002f9565b84845462000267565b825550505050565b600090565b6200033d6200032e565b6200034a81848462000303565b505050565b5b8181101562000372576200036660008262000333565b60018101905062000350565b5050565b601f821115620003c1576200038b8162000235565b62000396846200024a565b81016020851015620003a6578190505b620003be620003b5856200024a565b8301826200034f565b50505b505050565b600082821c905092915050565b6000620003e660001984600802620003c6565b1980831691505092915050565b6000620004018383620003d3565b9150826002028217905092915050565b6200041c8262000197565b67ffffffffffffffff811115620004385762000437620001a2565b5b62000444825462000200565b6200045182828562000376565b600060209050601f83116001811462000489576000841562000474578287015190505b620004808582620003f3565b865550620004f0565b601f198416620004998662000235565b60005b82811015620004c3578489015182556001820191506020850194506020810190506200049c565b86831015620004e35784890151620004df601f891682620003d3565b8355505b6001600288020188555050505b505050505050565b610ab680620005086000396000f3fe608060405234801561001057600080fd5b50600436106100625760003560e01c80634a3bf37714610067578063538c91b2146100975780638d4b44d9146100c7578063b13c744b146100f7578063e89927ef14610127578063fdbc400614610143575b600080fd5b610081600480360381019061007c919061055e565b610161565b60405161008e91906105c0565b60405180910390f35b6100b160048036038101906100ac919061055e565b61019b565b6040516100be91906105f6565b60405180910390f35b6100e160048036038101906100dc919061055e565b610218565b6040516100ee91906105c0565b60405180910390f35b610111600480360381019061010c919061063d565b610246565b60405161011e91906106e9565b60405180910390f35b610141600480360381019061013c919061055e565b6102f2565b005b61014b61032b565b6040516101589190610817565b60405180910390f35b600061016c8261019b565b61017557600080fd5b6000826040516101859190610875565b9081526020016040518091039020549050919050565b600080600090505b60018054905081101561020d578280519060200120600182815481106101cc576101cb61088c565b5b906000526020600020016040516101e391906109be565b6040518091039020036101fa576001915050610213565b808061020590610a04565b9150506101a3565b50600090505b919050565b6000818051602081018201805184825260208301602085012081835280955050505050506000915090505481565b6001818154811061025657600080fd5b906000526020600020016000915090508054610271906108ea565b80601f016020809104026020016040519081016040528092919081815260200182805461029d906108ea565b80156102ea5780601f106102bf576101008083540402835291602001916102ea565b820191906000526020600020905b8154815290600101906020018083116102cd57829003601f168201915b505050505081565b60016000826040516103049190610875565b908152602001604051809103902060008282546103219190610a4c565b9250508190555050565b60606001805480602002602001604051908101604052809291908181526020016000905b828210156103fb57838290600052602060002001805461036e906108ea565b80601f016020809104026020016040519081016040528092919081815260200182805461039a906108ea565b80156103e75780601f106103bc576101008083540402835291602001916103e7565b820191906000526020600020905b8154815290600101906020018083116103ca57829003601f168201915b50505050508152602001906001019061034f565b50505050905090565b6000604051905090565b600080fd5b600080fd5b600080fd5b600080fd5b6000601f19601f8301169050919050565b7f4e487b7100000000000000000000000000000000000000000000000000000000600052604160045260246000fd5b61046b82610422565b810181811067ffffffffffffffff8211171561048a57610489610433565b5b80604052505050565b600061049d610404565b90506104a98282610462565b919050565b600067ffffffffffffffff8211156104c9576104c8610433565b5b6104d282610422565b9050602081019050919050565b82818337600083830152505050565b60006105016104fc846104ae565b610493565b90508281526020810184848401111561051d5761051c61041d565b5b6105288482856104df565b509392505050565b600082601f83011261054557610544610418565b5b81356105558482602086016104ee565b91505092915050565b6000602082840312156105745761057361040e565b5b600082013567ffffffffffffffff81111561059257610591610413565b5b61059e84828501610530565b91505092915050565b6000819050919050565b6105ba816105a7565b82525050565b60006020820190506105d560008301846105b1565b92915050565b60008115159050919050565b6105f0816105db565b82525050565b600060208201905061060b60008301846105e7565b92915050565b61061a816105a7565b811461062557600080fd5b50565b60008135905061063781610611565b92915050565b6000602082840312156106535761065261040e565b5b600061066184828501610628565b91505092915050565b600081519050919050565b600082825260208201905092915050565b60005b838110156106a4578082015181840152602081019050610689565b60008484015250505050565b60006106bb8261066a565b6106c58185610675565b93506106d5818560208601610686565b6106de81610422565b840191505092915050565b6000602082019050818103600083015261070381846106b0565b905092915050565b600081519050919050565b600082825260208201905092915050565b6000819050602082019050919050565b600082825260208201905092915050565b60006107538261066a565b61075d8185610737565b935061076d818560208601610686565b61077681610422565b840191505092915050565b600061078d8383610748565b905092915050565b6000602082019050919050565b60006107ad8261070b565b6107b78185610716565b9350836020820285016107c985610727565b8060005b8581101561080557848403895281516107e68582610781565b94506107f183610795565b925060208a019950506001810190506107cd565b50829750879550505050505092915050565b6000602082019050818103600083015261083181846107a2565b905092915050565b600081905092915050565b600061084f8261066a565b6108598185610839565b9350610869818560208601610686565b80840191505092915050565b60006108818284610844565b915081905092915050565b7f4e487b7100000000000000000000000000000000000000000000000000000000600052603260045260246000fd5b7f4e487b7100000000000000000000000000000000000000000000000000000000600052602260045260246000fd5b6000600282049050600182168061090257607f821691505b602082108103610915576109146108bb565b5b50919050565b600081905092915050565b60008190508160005260206000209050919050565b60008154610948816108ea565b610952818661091b565b9450600182166000811461096d5760018114610982576109b5565b60ff19831686528115158202860193506109b5565b61098b85610926565b60005b838110156109ad5781548189015260018201915060208101905061098e565b838801955050505b50505092915050565b60006109ca828461093b565b915081905092915050565b7f4e487b7100000000000000000000000000000000000000000000000000000000600052601160045260246000fd5b6000610a0f826105a7565b91507fffffffffffffffffffffffffffffffffffffffffffffffffffffffffffffffff8203610a4157610a406109d5565b5b600182019050919050565b6000610a57826105a7565b9150610a62836105a7565b9250828201905080821115610a7a57610a796109d5565b5b9291505056fea264697066735822122047a3decba8baf2db2eea953baa0b96df2197d90f742ca95da28b90fc003cd8eb64736f6c63430008120033",
  "linkReferences": {},
  "deployedLinkReferences": {}
}